:02000002D0002C
:1040000000400D0064530D00000006000C00050187
:084010000401BD0B00000000DB
:0440180018510D002E
:10401C0009480A49884208B505D0094A824202D0AB
:10402C00121A00F0FDFF0748074A0021121A01F08E
:10403C0005F8014808BD00BFBCE50320D4520D00B3
:10404C0024E6032024E60320F0E7032070B5074E96
:10405C00074C00F047FCA41BA4080025A54200D186
:10406C0070BD56F8043B98470135F7E7A8520D0090
:10407C00CC520D0000F084B808B500F0BDF8BDE8D6
:10408C00084000F0F1BB00F0A3BA00F0A9BA007828
:10409C00B0FA80F04009704701230370704708B5EF
:1040AC000121072000F04BFF7D2000F0A3FB002135
:1040BC00072000F044FF7D2000F09CFBF0E710B5DA
:1040CC000446006808B100F08BFA204610BD0000D1
:1040DC0070B5154E33680133336000F00DFD0021CF
:1040EC00022000F0F1F900F0F7F800F005FD34685B
:1040FC00002C054615DA2D2100F036FB61420A2210
:10410C00284600F040FB284600F031FB002102203D
:10411C0000F0DAF900F0E8F84FF4FA7000F06AFBFE
:10412C00D8E72146EBE700BF34E6032038B500F0B2
:10413C00B1FF044600F0E0FC0021022000F0C4F9BD
:10414C0000F0CAF800F0D8FC002C054615DA2D2139
:10415C0000F00AFB61420A22284600F014FB2846B4
:10416C0000F005FB0021022000F0AEF900F0BCF8D5
:10417C004FF47A7000F03EFBD9E72146EBE70000E4
:10418C0037B50121072000F0C9FE00F0B5FC4FF453
:10419C00165100F0A1FC00F0AFFC00F0A1FC0028CF
:1041AC00F9D000244FF48065CDE900450B4B0C4948
:1041BC000C48022200F078F8CDE900450A4B08497A
:1041CC000A48022200F070F8CDE90045084B04497A
:1041DC000848022200F068F803B030BD39410D00E8
:1041EC002C510D0038E60320DD400D003CE6032089
:1041FC00AB400D0040E603207047000038B50A4C78
:10420C000A4BA360002503202560A580A57100F052
:10421C0043F90749074A204600F0EAFE29460120E7
:10422C00BDE8384000F048B928E603200000FFFF45
:10423C00CB400D0024E6032008B5024B1B689B689D
:10424C00019308BD6802030008B5024B1B68DB68CC
:10425C00019308BD6802030008B5024B1B689B68FC
:10426C00019308BD2C02030008B5024B1B68DB68E8
:10427C00019308BD2C02030008B5024B1B681B6997
:10428C00019308BD2C02030008B5024B1B685B6848
:10429C00019308BD1802030008B5024B1B685B694B
:1042AC00019308BD1802030008B5024B1B685B683C
:1042BC00019308BD4802030008B5024B1B685B6CF8
:1042CC00019308BD4802030008B5024B1B689B6CA8
:1042DC00019308BD4802030008B5024B1B68DB6C58
:1042EC00019308BD4802030008B5024B1B685B6DC7
:1042FC00019308BD4802030008B5024B1B685B69BB
:10430C00019308BD6402030008B5024B1B681B68CF
:10431C00019308BD3C02030008B5024B1B68DB6827
:10432C00019308BD3C02030008B5024B1B681B69D6
:10433C00019308BD3C02030008B5024B1B685B6986
:10434C00019308BD3C02030008B5024B1B689B6936
:10435C00019308BD3C02030008B5024B1B68DB69E6
:10436C00019308BD3C02030008B5024B1B681B6A95
:10437C00019308BD3C02030008B5024B1B689B6A05
:10438C00019308BD3C02030008B5024B1B681B6A75
:10439C00019308BD2802030008B5024B1B685B6A39
:1043AC00019308BD2802030008B5024B1B689B6AE9
:1043BC00019308BD2802030008B5024B1B68DB6A99
:1043CC00019308BD2802030008B5024B1B681B6B48
:1043DC00019308BD2802030008B5024B1B685B6BF8
:1043EC00019308BD2802030008B5024B1B681B6C27
:1043FC00019308BD2802030008B5024B1B68DB695A
:10440C00019308BD3002030008B5024B1B681B6A00
:10441C00019308BD3002030008B5024B1B681B68F2
:10442C00019308BD4C02030008B5024B1B685B6886
:10443C00019308BD4C02030008B5024B1B681B69B5
:10444C00019308BD4C02030008B5024B1B685B6965
:10445C00019308BD4C02030008B5024B1B689B6915
:10446C00019308BD4C02030008B5024B1B68DB69C5
:10447C00019308BD4C02030008B5024B1B681B6A74
:10448C00019308BD4C02030008B5024B1B689B6AE4
:10449C00019308BD4C02030008B5024B1B685B6816
:1044AC00019308BD2002030008B5024B1B685B6931
:1044BC00019308BD2002030008B5024B1B68DB6AA0
:1044CC00019308BD2002030008B5024B1B685B6B0F
:1044DC00019308BD2002030008B5034B1B68D3F8F9
:1044EC008830019308BD00002002030008B5034B7F
:1044FC001B68D3F89430019308BD00002002030020
:10450C0008B5024B1B685B68019308BD40020300B1
:10451C0008B5024B1B689B68019308BD4002030061
:10452C0008B5024B1B68DB68019308BD4002030011
:10453C0008B5024B1B681B69019308BD40020300C0
:10454C0008B5024B1B685B69019308BD4002030070
:10455C0008B5024B1B689B69019308BD4002030020
:10456C0008B5024B1B68DB69019308BD40020300D0
:10457C0008B5024B1B681B6A019308BD400203007F
:10458C0008B5024B1B681B6B019308BD400203006E
:10459C0008B5024B1B685B6B019308BD400203001E
:1045AC0008B5024B1B681B6C019308BD400203004D
:1045BC0008B5024B1B685B6C019308BD40020300FD
:1045CC0008B5024B1B68DB6B019308BD440203006A
:1045DC0008B5024B1B681B68019308BD1C02030045
:1045EC0008B5024B1B685B68019308BD1C020300F5
:1045FC0008B5024B1B685B6C019308BD1C020300E1
:10460C00002240681146FFF7B3BF002240681146F4
:10461C00FFF7BEBF40680022FFF7B2BF4068002220
:10462C0081F00101FFF79CBF002340681A46194630
:10463C00FFF78EBF002340681A461946FFF780BF6C
:10464C00002240681146FFF773BF002240681146F4
:10465C00FFF75EBF406800220221FFF761BF002315
:10466C0040681A46FFF74CBF024B03225A60024ABD
:10467C001A60704744E603203C510D0010B5044607
:10468C0008462170FFF7B8FE00236360204610BD7A
:10469C0010B5094B094C022200201A60084B20600F
:1046AC00A080A071A360FFF7F7FE2046054A0649DB
:1046BC00BDE8104000F09CBC58E603204CE60320FB
:1046CC000000FFFF24E60320CB400D0010B504468C
:1046DC00006808B1FFF7F8FD204610BD10B58368DF
:1046EC00044613B1032201469847204610BD000032
:1046FC0010B5064C002320462360FFF7DDFD204655
:10470C00034A0449BDE8104000F072BC5CE603208B
:10471C0024E60320D9460D00F8B506460D468F1841
:10472C000024BD420CD0336815F8011B9B68304641
:10473C009847031E01DB1C44F3E7002C08BF1C4602
:10474C002046F8BD13B50446084659B1019100F056
:10475C00D5FC23680199DB680246204602B0BDE80F
:10476C001040184702B010BD03689B68184738B555
:10477C000D210546FFF7F8FF0A2104462846FFF7EE
:10478C00F3FF204438BD30B58BB000238DF82430B6
:10479C00012A98BF0A2209AC0D46B1FBF2F101FBCC
:1047AC00125303F0FF03092B94BF30333733DBB2C2
:1047BC00AA4204F8013DEFD92146FFF7C3FF0BB025
:1047CC0030BD002340681A461946FFF7B9BE0000F9
:1047DC00014B024A1A60704760E6032070510D00CD
:1047EC00024B1A68024B1A60704700BFBCE50320ED
:1047FC0064E603200021FFF757BE10B50446FFF70F
:10480C006DFF204610BD00000348044A04490023F4
:10481C00836000F0EDBB00BF68E6032024E60320B4
:10482C0007480D00014B1860704700BFC0E503201E
:10483C0008B50B4B43B100F05FF903681B6998474F
:10484C00002801DDAFF30080064B43B100F0D2F934
:10485C0003681B699847002801DDAFF3008008BD91
:10486C00000000000000000008B5FFF7E1FFFFF7B3
:10487C0013FD014B186008BDD4E703200248034A1E
:10488C000349121A00F0CCBB00F4032004F40320FB
:10489C00D0520D0007B5002300931A466FF0770134
:1048AC00FFF724FE03B05DF804FB000007B5438856
:1048BC000A2B08D0502B0BD1094B1B684BB103B002
:1048CC005DF804EB1847FFF7E5FF03B05DF804FB58
:1048DC00002300931A466FF07701FFF707FEF4E709
:1048EC007CE6032038B5124C1248134D0021FFF71B
:1048FC007FFE2368AB42114B0CBF012200221A70C1
:10490C0002D0FFF7BBFF2560FFF7BEFC044600F0AA
:10491C009DFB0B4B13B12046AFF3008000210848E0
:10492C00FFF74EFEBDE8384006480021FFF7D4BD26
:10493C0000F4032031480D001E1C279A78E6032052
:10494C0000000000B9480D00704710B5182104464E
:10495C0000F053FB204610BDF0B5037D062B8DB047
:10496C000E4600F104074FF0000412D000F10805C8
:10497C0015F8011D0A223046FFF705FFAF4204442B
:10498C0019D0002CF4D02E213046FFF7EDFE044454
:10499C00EEE72F236A4639460A208DF80040FFF7D0
:1049AC00ABFC684600F0AAFB33680246DB6869463C
:1049BC0030469847044620460DB0F0BD10B5054B67
:1049CC000446112240F8043B002100F037FB20463E
:1049DC0010BD00BF98510D000346074A10B543F8AF
:1049EC00042B01F1100251F8044B43F8044B914293
:1049FC00F9D10A781A7010BD98510D0010B59DF8B8
:104A0C00084044EA032343EA024242EA01610423D8
:104A1C004160037510BD000013B5054B0360CB78E6
:104A2C0000938B784A780978FFF7E8FF02B010BD45
:104A3C0098510D0041747047704708B50021007CF7
:104A4C00FFF70AFD40EAE07008BD08B50121007CC3
:104A5C00FFF702FD40EAE07008BD08B5007CFFF7E7
:104A6C00F3FC20EAE07008BD08B5007CFFF7E4FC1D
:104A7C0020EAE07008BD13B50446007C0191FFF7F5
:104A8C00E3FC0028019901DC607C20B1207CFFF75D
:104A9C00EBFC20EAE07002B010BD007CFFF7ECBC30
:104AAC0010B51421044600F0A8FA204610BD0000F1
:104ABC0010B54FF47A73044608460021C4E901137B
:104ACC00044B23600123207463741146FFF7A4FC8C
:104ADC00204610BDAC510D00007C0022FFF7A4BC99
:104AEC00007CFFF7D1BC10B514220446002100F065
:104AFC00A5FA204610BD000010B5104C88B003A8D4
:104B0C00FFF7F1FF2178BFF35B8F11F0010111D199
:104B1C0020460191FFF7BBFA019958B103AA084846
:104B2C00FFF7C6FF2046FFF7B7FA064A06490448C6
:104B3C0000F05EFA024808B010BD00BF80E603200A
:104B4C0084E6032024E60320454A0D007047417497
:104B5C00704708B5007CFFF70FFC20EAE07008BD39
:104B6C0008B5007CFFF7E0FB20EAE07008BD08B553
:104B7C00007CFFF7E9FB40EAE07008BD08B5007C5B
:104B8C00FFF7DAFB40EAE07008BD007CFFF7E4BBFE
:104B9C0037B5457C04462DB1207C03B0BDE83040D0
:104BAC00FFF7BABB007C0191FFF7E6FB00280199E7
:104BBC00F2DC284603B030BD10B51421044600F0D9
:104BCC001CFA204610BD000010B54FF0000C044636
:104BDC00084611464FF47A72C4E901C2044A2260B5
:104BEC000122207462741A46FFF78EFB204610BD1A
:104BFC00DC510D0013B50E4C2178BFF35B8F11F017
:104C0C00010112D120460191FFF741FA019960B1DF
:104C1C00084A094B0948FFF7D7FF2046FFF73CFA33
:104C2C00074A0849054800F0E3F9044802B010BDF2
:104C3C0098E603209CE6032020E70320A4E703204A
:104C4C0024E60320594B0D007047F8B5064615466F
:104C5C000C468F18BC4206D0336814F8011B9B68B5
:104C6C0030469847F6E72846F8BD007C0022FFF74F
:104C7C008BBB007C0021FFF78FBB007C0021FFF772
:104C8C0093BB007C0021FFF797BB007C0021FFF752
:104C9C009BBB10B51421044600F0AFF9204610BDA3
:104CAC0010B54FF47A73044608460021C4E9011389
:104CBC00034B236020741146FFF796FB204610BD72
:104CCC000C520D00002240681146FFF731BC002247
:104CDC0040681146FFF74CBC002240681146FFF7B4
:104CEC0057BC40680022FFF74BBC4068002281F0A3
:104CFC000101FFF735BC002340681A461946FFF73F
:104D0C0027BC002240681146FFF702BC4068002215
:104D1C000221FFF705BC002340681A46FFF7F0BBE1
:104D2C00024B04225A60024A1A607047B8E703200B
:104D3C0034520D00002340681A46FFF7E1BB40686F
:104D4C0000220221FFF7ECBB002240681146FFF75E
:104D5C00DFBB002240681146FFF7EABB0023406826
:104D6C001A461946FFF7ECBB002340681A46194651
:104D7C00FFF7EEBB40680021FFF712BC4068002132
:104D8C00FFF716BC4068002281F00101FFF7E8BB79
:104D9C0040680022FFF7F4BB002240681146FFF781
:104DAC00F7BB002240681146FFF7E2BB2DE9F04348
:104DBC00002495B016460D460746FFF7FFFD214629
:104DCC0018220EA8009400F039F94023CDE90C34D8
:104DDC0021466B460CAA3046FFF736FA04460028EB
:104DEC004CD1024601216868FFF7A2FB02218046E4
:104DFC0022466868FFF79CFB009E81462146002EE8
:104E0C003CD000293AD17368022B03D00A2B11D065
:104E1C00F669F4E7B8F1000F0AD0716906A80431FD
:104E2C0007ADFFF7F9FD0FCD3C1D0FC42B682370A8
:104E3C004146EDE7B9F1000F01D14946E8E7746945
:104E4C00102201A800F0FAF806238DF8143001ADF9
:104E5C0004F108031834186859682A4603C2083349
:104E6C00A3421546F7D101A906A807ADFFF7B4FD7B
:104E7C000FCD3C1D0FC42B682370DEE70098FFF7A5
:104E8C00DBF9384615B0BDE8F0830000024B034A4D
:104E9C001A6000225A607047C0E7032070520D0060
:104EAC00232813B502D9002002B010BDA0F10B03CA
:104EBC00022B1AD8174C2178BFF35B8F11F001012C
:104ECC000BD120460191FFF7E2F8019928B1124865
:104EDC00FFF7D4FB2046FFF7DFF80F4B1878FFF7EE
:104EEC0093FA0028DFD10120DEE7012809D800F071
:104EFC0057F80021007CFFF76FFA80F00100C0B278
:104F0C00D2E709380128EED8FFF774FE007CFFF7D2
:104F1C002BFAF2E7C8E70320CCE70320232838B5A7
:104F2C0004460D460AD8FF2908D0FFF7B9FF28B16F
:104F3C0029462046BDE83840FFF78EB938BD38B554
:104F4C0004460D46FFF790F9FF2810D0062804D828
:104F5C004D2323FA00F0C30709D42046FFF7A0FF26
:104F6C0028B129462046BDE83840FFF785B938BD41
:104F7C0038B5002320254380142304460380856024
:104F8C0005610649284600F03AF804496060284655
:104F9C0000F035F8E060204638BD00BFA4520D008B
:104FAC0030B50F4D2978BFF35B8F11F0010487B03A
:104FBC0013D12846FFF76BF878B101A8FFF7D8FF9B
:104FCC0001AA21460748FFF76BFE2846FFF764F855
:104FDC00054A0649034800F00BF8024807B030BDFB
:104FEC00D8E70320DCE7032024E60320554C0D0012
:104FFC000B460146184600F005B8FFF746B8FFF718
:10500C0042B8000010B5054C13462CB10A460146B7
:10501C000220AFF3008010BD2046FCE7000000002A
:10502C000A44914200F1FF3300D1704710B511F8DA
:10503C00014B03F8014F9142F9D110BD02440346D4
:10504C00934200D1704703F8011BF9E738B50D4BBB
:10505C001D68AB6B04467BB91820FFF7B9FA0A4AF6
:10506C000A4BA863C0E90023094B83600B2383819F
:10507C0001220023C0E90423AB6B00221C615A619E
:10508C0038BD00BFC0E503200E33CDAB34126DE646
:10509C00ECDE0500134B10B51C68A36B7BB9182014
:1050AC00FFF796FA104A114BA063C0E90023104B8E
:1050BC0083600B23838101220023C0E90423A16BAD
:1050CC000C480A694B690C4C504304FB0300A2FBCF
:1050DC0004345A1C044444F10000C1E9042020F0BB
:1050EC00004010BDC0E503200E33CDAB34126DE68D
:1050FC00ECDE05002DF451582D7F954C034613F82A
:10510C00012B002AFBD1181A013870471D400D00E5
:10511C0059400D0081400D0085400D00000000003D
:10512C00616E794E616D65000000000000000000AA
:10513C006B460D0061460D0057460D004D460D00A7
:10514C0041460D0035460D00814D0D00894D0D0079
:10515C0029460D0021460D0017460D000D460D0089
:10516C00B94D0D006170700025592D256D2D2564EC
:10517C005425483A254D3A2553257A0061736374BA
:10518C00696D6500000000000000000065490D001D
:10519C0055490D0057490D000000000000000000AB
:1051AC00454A0D00AD4A0D00834A0D0025470D0000
:1051BC00754A0D00474A0D00574A0D00A74A0D00CD
:1051CC00674A0D00414A0D0000000000000000007D
:1051DC00594B0D00C54B0D009D4B0D0025470D0087
:1051EC006D4B0D00894B0D007B4B0D00974B0D004B
:1051FC005B4B0D005F4B0D00000000000000000039
:10520C00554C0D009F4C0D00774C0D00574C0D006C
:10521C007F4C0D00874C0D008F4C0D00974C0D00F2
:10522C000000000000000000234D0D00194D0D0082
:10523C000F4D0D00D14C0D00CF470D00034D0D004F
:10524C00814D0D00894D0D00F74C0D00EF4C0D00FC
:10525C00E54C0D00DB4C0D00B94D0D0000000000BD
:10526C0000000000414D0D004B4D0D00554D0D0043
:10527C005F4D0D00694D0D00754D0D00814D0D00FC
:10528C00894D0D00914D0D009D4D0D00A54D0D004E
:10529C00AF4D0D00B94D0D000000000009420D008E
:1052AC0075460D009D460D00FD460D00DD470D00B9
:1052BC00ED470D0015480D002D4D0D00994E0D00BC
:0452CC0000000000DE
:0452D00000000000DA
:1052D40088510D00C4E50320000000000000000018
:1052E40000000000000000000000000000000000BA
:1052F40000000000000000000000000000000000AA
:105304000000000000000000000000000000000099
:105314000000000000000000000000000000000089
:105324000000000000000000000000000000000079
:08533400000000000000000071
:10533C00FFFFFFFF00000102030405060708090A2E
:10534C000B0C0D0E0F101112131415161718191A29
:08535C001B1C1D1E1F20280070
:045364007856341231
:04000003D000401CCD
:00000001FF
